{
  "contractName": "Sourc3",
  "abi": [
    {
      "inputs": [
        {
          "internalType": "string",
          "name": "name",
          "type": "string"
        }
      ],
      "name": "createOrganization",
      "outputs": [],
      "stateMutability": "nonpayable",
      "type": "function"
    },
    {
      "inputs": [
        {
          "internalType": "uint64",
          "name": "organizationId",
          "type": "uint64"
        },
        {
          "internalType": "string",
          "name": "name",
          "type": "string"
        }
      ],
      "name": "modifyOrganization",
      "outputs": [],
      "stateMutability": "nonpayable",
      "type": "function"
    },
    {
      "inputs": [
        {
          "internalType": "uint64",
          "name": "organizationId",
          "type": "uint64"
        }
      ],
      "name": "removeOrganization",
      "outputs": [],
      "stateMutability": "nonpayable",
      "type": "function"
    },
    {
      "inputs": [
        {
          "internalType": "string",
          "name": "name",
          "type": "string"
        },
        {
          "internalType": "uint64",
          "name": "organizationId",
          "type": "uint64"
        }
      ],
      "name": "createProject",
      "outputs": [],
      "stateMutability": "nonpayable",
      "type": "function"
    },
    {
      "inputs": [
        {
          "internalType": "uint64",
          "name": "projectId",
          "type": "uint64"
        },
        {
          "internalType": "string",
          "name": "name",
          "type": "string"
        }
      ],
      "name": "modifyProject",
      "outputs": [],
      "stateMutability": "nonpayable",
      "type": "function"
    },
    {
      "inputs": [
        {
          "internalType": "uint64",
          "name": "projectId",
          "type": "uint64"
        }
      ],
      "name": "removeProject",
      "outputs": [],
      "stateMutability": "nonpayable",
      "type": "function"
    },
    {
      "inputs": [
        {
          "internalType": "string",
          "name": "name",
          "type": "string"
        },
        {
          "internalType": "uint64",
          "name": "projectId",
          "type": "uint64"
        }
      ],
      "name": "createRepo",
      "outputs": [],
      "stateMutability": "nonpayable",
      "type": "function"
    },
    {
      "inputs": [
        {
          "internalType": "uint64",
          "name": "repoId",
          "type": "uint64"
        },
        {
          "internalType": "string",
          "name": "name",
          "type": "string"
        }
      ],
      "name": "modifyRepo",
      "outputs": [],
      "stateMutability": "nonpayable",
      "type": "function"
    },
    {
      "inputs": [
        {
          "internalType": "uint64",
          "name": "repoId",
          "type": "uint64"
        }
      ],
      "name": "removeRepo",
      "outputs": [],
      "stateMutability": "nonpayable",
      "type": "function"
    },
    {
      "inputs": [
        {
          "internalType": "uint64",
          "name": "repoId",
          "type": "uint64"
        },
        {
          "internalType": "uint64",
          "name": "objsCount",
          "type": "uint64"
        },
        {
          "internalType": "uint64",
          "name": "metasCount",
          "type": "uint64"
        },
        {
          "internalType": "string",
          "name": "expectedState",
          "type": "string"
        },
        {
          "internalType": "string",
          "name": "state",
          "type": "string"
        }
      ],
      "name": "pushState",
      "outputs": [],
      "stateMutability": "nonpayable",
      "type": "function"
    },
    {
      "inputs": [
        {
          "internalType": "uint64",
          "name": "repoId",
          "type": "uint64"
        }
      ],
      "name": "loadState",
      "outputs": [
        {
          "internalType": "string",
          "name": "state",
          "type": "string"
        },
        {
          "internalType": "uint64",
          "name": "curObjects",
          "type": "uint64"
        },
        {
          "internalType": "uint64",
          "name": "curMetas",
          "type": "uint64"
        }
      ],
      "stateMutability": "view",
      "type": "function",
      "constant": true
    },
    {
      "inputs": [
        {
          "internalType": "uint64",
          "name": "repoId",
          "type": "uint64"
        },
        {
          "internalType": "address",
          "name": "member",
          "type": "address"
        },
        {
          "internalType": "uint8",
          "name": "permissions",
          "type": "uint8"
        }
      ],
      "name": "addRepoMember",
      "outputs": [],
      "stateMutability": "nonpayable",
      "type": "function"
    },
    {
      "inputs": [
        {
          "internalType": "uint64",
          "name": "repoId",
          "type": "uint64"
        },
        {
          "internalType": "address",
          "name": "member",
          "type": "address"
        },
        {
          "internalType": "uint8",
          "name": "permissions",
          "type": "uint8"
        }
      ],
      "name": "modifyRepoMember",
      "outputs": [],
      "stateMutability": "nonpayable",
      "type": "function"
    },
    {
      "inputs": [
        {
          "internalType": "uint64",
          "name": "repoId",
          "type": "uint64"
        },
        {
          "internalType": "address",
          "name": "member",
          "type": "address"
        }
      ],
      "name": "removeRepoMeber",
      "outputs": [],
      "stateMutability": "nonpayable",
      "type": "function"
    },
    {
      "inputs": [
        {
          "internalType": "uint64",
          "name": "projectId",
          "type": "uint64"
        },
        {
          "internalType": "address",
          "name": "member",
          "type": "address"
        },
        {
          "internalType": "uint8",
          "name": "permissions",
          "type": "uint8"
        }
      ],
      "name": "addProjectMember",
      "outputs": [],
      "stateMutability": "nonpayable",
      "type": "function"
    },
    {
      "inputs": [
        {
          "internalType": "uint64",
          "name": "projectId",
          "type": "uint64"
        },
        {
          "internalType": "address",
          "name": "member",
          "type": "address"
        },
        {
          "internalType": "uint8",
          "name": "permissions",
          "type": "uint8"
        }
      ],
      "name": "modifyProjectMember",
      "outputs": [],
      "stateMutability": "nonpayable",
      "type": "function"
    },
    {
      "inputs": [
        {
          "internalType": "uint64",
          "name": "projectId",
          "type": "uint64"
        },
        {
          "internalType": "address",
          "name": "member",
          "type": "address"
        }
      ],
      "name": "removeProjectMember",
      "outputs": [],
      "stateMutability": "nonpayable",
      "type": "function"
    },
    {
      "inputs": [
        {
          "internalType": "uint64",
          "name": "organizationId",
          "type": "uint64"
        },
        {
          "internalType": "address",
          "name": "member",
          "type": "address"
        },
        {
          "internalType": "uint8",
          "name": "permissions",
          "type": "uint8"
        }
      ],
      "name": "addOrganizationMember",
      "outputs": [],
      "stateMutability": "nonpayable",
      "type": "function"
    },
    {
      "inputs": [
        {
          "internalType": "uint64",
          "name": "organizationId",
          "type": "uint64"
        },
        {
          "internalType": "address",
          "name": "member",
          "type": "address"
        },
        {
          "internalType": "uint8",
          "name": "permissions",
          "type": "uint8"
        }
      ],
      "name": "modifyOrganizationMember",
      "outputs": [],
      "stateMutability": "nonpayable",
      "type": "function"
    },
    {
      "inputs": [
        {
          "internalType": "uint64",
          "name": "organizationId",
          "type": "uint64"
        },
        {
          "internalType": "address",
          "name": "member",
          "type": "address"
        }
      ],
      "name": "removeOrganizationMember",
      "outputs": [],
      "stateMutability": "nonpayable",
      "type": "function"
    },
    {
      "inputs": [],
      "name": "getMyRepos",
      "outputs": [
        {
          "internalType": "uint64[]",
          "name": "ids",
          "type": "uint64[]"
        },
        {
          "internalType": "string[]",
          "name": "names",
          "type": "string[]"
        }
      ],
      "stateMutability": "view",
      "type": "function",
      "constant": true
    },
    {
      "inputs": [],
      "name": "getReposList",
      "outputs": [
        {
          "internalType": "uint64[]",
          "name": "ids",
          "type": "uint64[]"
        },
        {
          "internalType": "string[]",
          "name": "names",
          "type": "string[]"
        },
        {
          "internalType": "uint64[]",
          "name": "projectIds",
          "type": "uint64[]"
        },
        {
          "internalType": "uint64[]",
          "name": "curObjcts",
          "type": "uint64[]"
        },
        {
          "internalType": "address[]",
          "name": "creators",
          "type": "address[]"
        }
      ],
      "stateMutability": "view",
      "type": "function",
      "constant": true
    },
    {
      "inputs": [
        {
          "internalType": "uint64",
          "name": "id",
          "type": "uint64"
        }
      ],
      "name": "getRepo",
      "outputs": [
        {
          "internalType": "string",
          "name": "",
          "type": "string"
        },
        {
          "internalType": "address",
          "name": "",
          "type": "address"
        },
        {
          "internalType": "uint64",
          "name": "",
          "type": "uint64"
        },
        {
          "internalType": "uint64",
          "name": "",
          "type": "uint64"
        },
        {
          "internalType": "uint64",
          "name": "",
          "type": "uint64"
        },
        {
          "internalType": "string",
          "name": "",
          "type": "string"
        }
      ],
      "stateMutability": "view",
      "type": "function",
      "constant": true
    },
    {
      "inputs": [
        {
          "internalType": "uint64",
          "name": "id",
          "type": "uint64"
        }
      ],
      "name": "getProject",
      "outputs": [
        {
          "internalType": "string",
          "name": "",
          "type": "string"
        },
        {
          "internalType": "address",
          "name": "",
          "type": "address"
        },
        {
          "internalType": "uint64",
          "name": "",
          "type": "uint64"
        }
      ],
      "stateMutability": "view",
      "type": "function",
      "constant": true
    },
    {
      "inputs": [
        {
          "internalType": "uint64",
          "name": "id",
          "type": "uint64"
        }
      ],
      "name": "getOrganization",
      "outputs": [
        {
          "internalType": "string",
          "name": "",
          "type": "string"
        },
        {
          "internalType": "address",
          "name": "",
          "type": "address"
        }
      ],
      "stateMutability": "view",
      "type": "function",
      "constant": true
    },
    {
      "inputs": [
        {
          "internalType": "address",
          "name": "owner",
          "type": "address"
        },
        {
          "internalType": "string",
          "name": "name",
          "type": "string"
        }
      ],
      "name": "getRepoId",
      "outputs": [
        {
          "internalType": "uint64",
          "name": "",
          "type": "uint64"
        }
      ],
      "stateMutability": "view",
      "type": "function",
      "constant": true
    },
    {
      "inputs": [
        {
          "internalType": "address",
          "name": "owner",
          "type": "address"
        },
        {
          "internalType": "string",
          "name": "name",
          "type": "string"
        }
      ],
      "name": "getProjectId",
      "outputs": [
        {
          "internalType": "uint64",
          "name": "",
          "type": "uint64"
        }
      ],
      "stateMutability": "view",
      "type": "function",
      "constant": true
    },
    {
      "inputs": [
        {
          "internalType": "address",
          "name": "owner",
          "type": "address"
        },
        {
          "internalType": "string",
          "name": "name",
          "type": "string"
        }
      ],
      "name": "getOrganizationId",
      "outputs": [
        {
          "internalType": "uint64",
          "name": "",
          "type": "uint64"
        }
      ],
      "stateMutability": "view",
      "type": "function",
      "constant": true
    },
    {
      "inputs": [],
      "name": "getProjectsList",
      "outputs": [
        {
          "internalType": "uint64[]",
          "name": "ids",
          "type": "uint64[]"
        },
        {
          "internalType": "uint64[]",
          "name": "orgIds",
          "type": "uint64[]"
        },
        {
          "internalType": "string[]",
          "name": "names",
          "type": "string[]"
        },
        {
          "internalType": "address[]",
          "name": "creators",
          "type": "address[]"
        }
      ],
      "stateMutability": "view",
      "type": "function",
      "constant": true
    },
    {
      "inputs": [
        {
          "internalType": "uint64",
          "name": "projectId",
          "type": "uint64"
        }
      ],
      "name": "getReposListOfProject",
      "outputs": [
        {
          "internalType": "uint64[]",
          "name": "ids",
          "type": "uint64[]"
        },
        {
          "internalType": "string[]",
          "name": "names",
          "type": "string[]"
        },
        {
          "internalType": "uint64[]",
          "name": "curObjsNumbers",
          "type": "uint64[]"
        },
        {
          "internalType": "uint64[]",
          "name": "curMetasNumbers",
          "type": "uint64[]"
        },
        {
          "internalType": "address[]",
          "name": "creators",
          "type": "address[]"
        }
      ],
      "stateMutability": "view",
      "type": "function",
      "constant": true
    },
    {
      "inputs": [
        {
          "internalType": "uint64",
          "name": "projectId",
          "type": "uint64"
        }
      ],
      "name": "getMembersListOfProject",
      "outputs": [],
      "stateMutability": "view",
      "type": "function",
      "constant": true
    },
    {
      "inputs": [],
      "name": "getOrganizationsList",
      "outputs": [
        {
          "internalType": "uint64[]",
          "name": "ids",
          "type": "uint64[]"
        },
        {
          "internalType": "string[]",
          "name": "names",
          "type": "string[]"
        },
        {
          "internalType": "address[]",
          "name": "creators",
          "type": "address[]"
        }
      ],
      "stateMutability": "view",
      "type": "function",
      "constant": true
    },
    {
      "inputs": [
        {
          "internalType": "uint64",
          "name": "organizationId",
          "type": "uint64"
        }
      ],
      "name": "getProjectsListOfOrganization",
      "outputs": [
        {
          "internalType": "uint64[]",
          "name": "ids",
          "type": "uint64[]"
        },
        {
          "internalType": "string[]",
          "name": "names",
          "type": "string[]"
        },
        {
          "internalType": "address[]",
          "name": "creators",
          "type": "address[]"
        }
      ],
      "stateMutability": "view",
      "type": "function",
      "constant": true
    },
    {
      "inputs": [
        {
          "internalType": "uint64",
          "name": "organizationId",
          "type": "uint64"
        }
      ],
      "name": "getMembersListOfOrganization",
      "outputs": [],
      "stateMutability": "view",
      "type": "function",
      "constant": true
    }
  ],
  "bytecode": "0x6080604052700100000000000000010000000000000001600055600180546001608060020a031916905534801561003557600080fd5b50613c78806100456000396000f3fe608060405234801561001057600080fd5b5060043610610223576000357c01000000000000000000000000000000000000000000000000000000009004806361c2c5c811610137578063b9f754bb116100ca578063d27262d911610099578063d27262d91461049e578063dfed4ab4146104b1578063ea2b98a7146104c4578063f1decda5146104d7578063ff8f4d49146104f957600080fd5b8063b9f754bb14610444578063baa647e614610457578063be048e9e1461046a578063ce27cada1461048b57600080fd5b80639f37fa6a116101065780639f37fa6a146103f8578063a7d435281461040b578063a974203c1461041e578063ad31a3731461043157600080fd5b806361c2c5c8146103985780636427acca146103b057806365b5b57d146103c35780639d699a45146103d657600080fd5b80634285743c116101ba57806354b380541161018957806354b380541461034b5780635a69ad2b1461035e5780635ee5843a1461037457806360456fe41461037457806360fba7e01461038557600080fd5b80634285743c146102e3578063432d478f146102f6578063452b37c9146103215780634af49fdd1461033857600080fd5b80631f1f9175116101f65780631f1f917514610285578063243141d51461029857806325b0c238146102bd5780632bbe0fbf146102d057600080fd5b806302de7e87146102285780630d8cb19f1461023d57806312471fb0146102505780631b77a8de14610263575b600080fd5b61023b6102363660046135bf565b61050c565b005b61023b61024b366004613623565b610708565b61023b61025e366004613670565b6107d8565b61026b610977565b60405161027c9594939291906137b3565b60405180910390f35b61023b610293366004613820565b610da1565b6102ab6102a6366004613670565b610e5f565b60405161027c9695949392919061386d565b61023b6102cb366004613670565b611048565b61023b6102de3660046138cd565b6111d0565b61023b6102f1366004613820565b6112d5565b610309610304366004613962565b611395565b6040516001604060020a03909116815260200161027c565b6103296114c9565b60405161027c9392919061397e565b61023b610346366004613623565b6117a8565b61023b610359366004613820565b611874565b610366611934565b60405161027c9291906139c1565b61023b610382366004613670565b50565b61023b610393366004613623565b611b98565b6103a0611c6b565b60405161027c94939291906139ef565b61023b6103be366004613a47565b611fd3565b61023b6103d13660046135bf565b6120d0565b6103e96103e4366004613670565b6122ab565b60405161027c93929190613a83565b610309610406366004613962565b6123d2565b61023b610419366004613abe565b61246c565b61023b61042c366004613623565b612532565b61023b61043f366004613abe565b6125bf565b610329610452366004613670565b612680565b61023b610465366004613670565b6129ed565b61047d610478366004613670565b612b08565b60405161027c929190613ae8565b61026b610499366004613670565b612c1d565b61023b6104ac366004613abe565b6130dd565b61023b6104bf366004613623565b6131a4565b61023b6104d2366004613623565b61322f565b6104ea6104e5366004613670565b6132b5565b60405161027c93929190613b13565b610309610507366004613962565b613395565b6000546001604060020a03604060020a909104811690821610801561055457506001604060020a038116600090815260026020526040902060010154600160a060020a031615155b6105a85760405160e560020a62461bcd02815260206004820181905260248201527f4f7267616e697a6174696f6e2073686f756c642062652073706563696669656460448201526064015b60405180910390fd5b60008054608060020a90046001604060020a03168160106105c883613b5f565b82546101009290920a6001604060020a0381810219909316918316021790915581166000908152600360209081526040909120855192935061060e92909186019061342f565b506001604060020a03818116600090815260036020818152604080842060018082018054600160e060020a031916337bffffffffffffffff00000000000000000000000000000000000000001981169190911760a060020a8c8b160217909155865293019091528220805460ff1916821790558054909216919061069183613b5f565b82546101009290920a6001604060020a038181021990931691831602179091558381166000908152600260205260409020600101805460a060020a9004909116915060146106de83613b5f565b91906101000a8154816001604060020a0302191690836001604060020a0316021790555050505050565b6000546001604060020a0390811690841610801561074c57506001604060020a03808416600090815260046020526040902060019081015460a060020a9004909116115b61075557600080fd5b6001604060020a0383166000908152600460209081526040808320600160a060020a038616845260050190915290205460ff161561079257600080fd5b6001604060020a039092166000908152600460209081526040808320600160a060020a0390941683526005909301905220805460ff90921660ff19909216919091179055565b6000546001604060020a0390811690821610801561081957506001604060020a038116600090815260046020526040902060010154600160a060020a031615155b6108685760405160e560020a62461bcd02815260206004820152601260248201527f556e6b6e6f776e207265706f7369746f72790000000000000000000000000000604482015260640161059f565b6001604060020a0380821660009081526004602090815260408083206001015460a060020a90048416835260039091528120600201805490921691906108ad83613b85565b82546101009290920a6001604060020a038181021990931691831602179091558216600090815260046020526040812091506108e982826134b3565b600182018054600160e060020a03191690556002820180546fffffffffffffffffffffffffffffffff1916905560006003830181905561092d9060048401906134b3565b505060018054604060020a90046001604060020a031690600861094f83613b85565b91906101000a8154816001604060020a0302191690836001604060020a031602179055505050565b6060806060806060600160089054906101000a90046001604060020a03166001604060020a03166001604060020a038111156109b5576109b56134fe565b6040519080825280602002602001820160405280156109de578160200160208202803683370190505b506001549095506001604060020a03604060020a909104811690811115610a0757610a076134fe565b604051908082528060200260200182016040528015610a3a57816020015b6060815260200190600190039081610a255790505b506001549094506001604060020a03604060020a909104811690811115610a6357610a636134fe565b604051908082528060200260200182016040528015610a8c578160200160208202803683370190505b506001549093506001604060020a03604060020a909104811690811115610ab557610ab56134fe565b604051908082528060200260200182016040528015610ade578160200160208202803683370190505b506001549092506001604060020a03604060020a909104811690811115610b0757610b076134fe565b604051908082528060200260200182016040528015610b30578160200160208202803683370190505b509050600060015b6000546001604060020a039081169082161015610d98576001604060020a038116600090815260046020526040902060010154600160a060020a031615610d86578087836001604060020a031681518110610b9557610b95613ba8565b6001604060020a0392831660209182029290920181019190915290821660009081526004909152604090208054610bcb90613bc1565b80601f0160208091040260200160405190810160405280929190818152602001828054610bf790613bc1565b8015610c445780601f10610c1957610100808354040283529160200191610c44565b820191906000526020600020905b815481529060010190602001808311610c2757829003601f168201915b505050505086836001604060020a031681518110610c6457610c64613ba8565b602002602001018190525060046000826001604060020a03166001604060020a0316815260200190815260200160002060010160149054906101000a90046001604060020a031685836001604060020a031681518110610cc657610cc6613ba8565b6001604060020a039283166020918202929092018101919091528282166000908152600490915260409020600201548551908216918691908516908110610d0f57610d0f613ba8565b6001604060020a039283166020918202929092018101919091528282166000908152600490915260409020600101548451600160a060020a03909116918591908516908110610d6057610d60613ba8565b600160a060020a039092166020928302919091019091015281610d8281613b5f565b9250505b80610d9081613b5f565b915050610b38565b50509091929394565b6000546001604060020a03908116908316108015610de257506001604060020a038216600090815260046020526040902060010154600160a060020a031615155b610e315760405160e560020a62461bcd02815260206004820152601260248201527f556e6b6e6f776e207265706f7369746f72790000000000000000000000000000604482015260640161059f565b6001604060020a03821660009081526004602090815260409091208251610e5a9284019061342f565b505050565b6060600080600080606060008054906101000a90046001604060020a03166001604060020a0316876001604060020a0316108015610ec057506001604060020a038716600090815260046020526040902060010154600160a060020a031615155b610ec957600080fd5b6001604060020a0380881660009081526004602081905260409091206001810154600282015482549294600160a060020a0383169460a060020a90930481169382821693604060020a909304909116918601908690610f2790613bc1565b80601f0160208091040260200160405190810160405280929190818152602001828054610f5390613bc1565b8015610fa05780601f10610f7557610100808354040283529160200191610fa0565b820191906000526020600020905b815481529060010190602001808311610f8357829003601f168201915b50505050509550808054610fb390613bc1565b80601f0160208091040260200160405190810160405280929190818152602001828054610fdf90613bc1565b801561102c5780601f106110015761010080835404028352916020019161102c565b820191906000526020600020905b81548152906001019060200180831161100f57829003601f168201915b5050505050905095509550955095509550955091939550919395565b6000546001604060020a03608060020a909104811690821610801561109057506001604060020a038116600090815260036020526040902060010154600160a060020a031615155b6110df5760405160e560020a62461bcd02815260206004820152600f60248201527f556e6b6e6f776e2070726f6a6563740000000000000000000000000000000000604482015260640161059f565b6001604060020a03808216600090815260036020526040902060020154161561110757600080fd5b6001604060020a03808216600090815260036020908152604080832060019081015460a060020a90819004861685526002909352922090910180549190910490911690601461115583613b85565b82546101009290920a6001604060020a0381810219909316918316021790915582166000908152600360205260408120915061119182826134b3565b5060018181018054600160e060020a03191690556002909101805467ffffffffffffffff1916905580546001604060020a031690600061094f83613b85565b6001604060020a038086166000908152600460205260408120600201805487939192916111ff91859116613bfe565b92506101000a8154816001604060020a0302191690836001604060020a031602179055508260046000876001604060020a03166001604060020a0316815260200190815260200160002060020160088282829054906101000a90046001604060020a031661126d9190613bfe565b92506101000a8154816001604060020a0302191690836001604060020a031602179055508060046000876001604060020a03166001604060020a0316815260200190815260200160002060040190805190602001906112cd92919061342f565b505050505050565b6000546001604060020a03604060020a909104811690831610801561131d57506001604060020a038216600090815260026020526040902060010154600160a060020a031615155b61136c5760405160e560020a62461bcd02815260206004820152601460248201527f556e6b6e6f776e206f7267616e697a6174696f6e000000000000000000000000604482015260640161059f565b6001604060020a03821660009081526002602090815260409091208251610e5a9284019061342f565b600060015b6000546001604060020a0390811690821610156114bd576001604060020a038116600090815260046020526040902060010154600160a060020a03858116911614801561149f57506001604060020a0381166000908152600460205260409020805461149f919061140a90613bc1565b80601f016020809104026020016040519081016040528092919081815260200182805461143690613bc1565b80156114835780601f1061145857610100808354040283529160200191611483565b820191906000526020600020905b81548152906001019060200180831161146657829003601f168201915b5050505050848051602091820120825192909101919091201490565b156114ab5790506114c3565b806114b581613b5f565b91505061139a565b50600090505b92915050565b600054606090819081906001604060020a0360c060020a9091048116908111156114f5576114f56134fe565b60405190808252806020026020018201604052801561151e578160200160208202803683370190505b506000549093506001604060020a0360c060020a909104811690811115611547576115476134fe565b60405190808252806020026020018201604052801561157a57816020015b60608152602001906001900390816115655790505b506000549092506001604060020a0360c060020a9091048116908111156115a3576115a36134fe565b6040519080825280602002602001820160405280156115cc578160200160208202803683370190505b509050600060015b6000546001604060020a03604060020a909104811690821610156117a1576001604060020a038116600090815260026020526040902060010154600160a060020a03161561178f578085836001604060020a03168151811061163857611638613ba8565b6001604060020a039283166020918202929092018101919091529082166000908152600290915260409020805461166e90613bc1565b80601f016020809104026020016040519081016040528092919081815260200182805461169a90613bc1565b80156116e75780601f106116bc576101008083540402835291602001916116e7565b820191906000526020600020905b8154815290600101906020018083116116ca57829003601f168201915b505050505084836001604060020a03168151811061170757611707613ba8565b602002602001018190525060026000826001604060020a03166001604060020a0316815260200190815260200160002060010160009054906101000a9004600160a060020a031683836001604060020a03168151811061176957611769613ba8565b600160a060020a03909216602092830291909101909101528161178b81613b5f565b9250505b8061179981613b5f565b9150506115d4565b5050909192565b6000546001604060020a039081169084161080156117e957506001604060020a0380841660009081526003602052604090206001015460a060020a90041615155b6117f257600080fd5b6001604060020a0383166000908152600360208181526040808420600160a060020a0387168552909201905281205460ff16900361182f57600080fd5b6001604060020a039092166000908152600360208181526040808420600160a060020a03909516845293909101905220805460ff90921660ff19909216919091179055565b6000546001604060020a03608060020a90910481169083161080156118bc57506001604060020a038216600090815260036020526040902060010154600160a060020a031615155b61190b5760405160e560020a62461bcd02815260206004820152600f60248201527f556e6b6e6f776e2070726f6a6563740000000000000000000000000000000000604482015260640161059f565b6001604060020a03821660009081526003602090815260409091208251610e5a9284019061342f565b606080600060015b6000546001604060020a0390811690821610156119a0576001604060020a03811660009081526004602052604090206001015433600160a060020a039091160361198e578161198a81613b5f565b9250505b8061199881613b5f565b91505061193c565b50806001604060020a03166001604060020a038111156119c2576119c26134fe565b6040519080825280602002602001820160405280156119eb578160200160208202803683370190505b509250806001604060020a03166001604060020a03811115611a0f57611a0f6134fe565b604051908082528060200260200182016040528015611a4257816020015b6060815260200190600190039081611a2d5790505b509150600060015b6000546001604060020a039081169082161015611b91576001604060020a03811660009081526004602052604090206001015433600160a060020a0390911603611b7f5780858381518110611aa157611aa1613ba8565b6001604060020a0392831660209182029290920181019190915290821660009081526004909152604090208054611ad790613bc1565b80601f0160208091040260200160405190810160405280929190818152602001828054611b0390613bc1565b8015611b505780601f10611b2557610100808354040283529160200191611b50565b820191906000526020600020905b815481529060010190602001808311611b3357829003601f168201915b5050505050848381518110611b6757611b67613ba8565b602002602001018190525081611b7c90613c29565b91505b80611b8981613b5f565b915050611a4a565b5050509091565b6000546001604060020a03604060020a9091048116908416108015611be057506001604060020a038316600090815260026020526040902060010154600160a060020a031615155b611be957600080fd5b6001604060020a0383166000908152600260208181526040808420600160a060020a0387168552909201905281205460ff169003611c2657600080fd5b6001604060020a039092166000908152600260208181526040808420600160a060020a03909516845293909101905220805460ff90921660ff19909216919091179055565b6001546060908190819081906001604060020a0390811690811115611c9257611c926134fe565b604051908082528060200260200182016040528015611cbb578160200160208202803683370190505b506001549094506001604060020a0390811690811115611cdd57611cdd6134fe565b604051908082528060200260200182016040528015611d06578160200160208202803683370190505b506001549093506001604060020a0390811690811115611d2857611d286134fe565b604051908082528060200260200182016040528015611d5b57816020015b6060815260200190600190039081611d465790505b506001549092506001604060020a0390811690811115611d7d57611d7d6134fe565b604051908082528060200260200182016040528015611da6578160200160208202803683370190505b509050600060015b6000546001604060020a03608060020a90910481169082161015611fcb576001604060020a038116600090815260036020526040902060010154600160a060020a031615611fb9578086836001604060020a031681518110611e1257611e12613ba8565b6001604060020a03928316602091820292909201810191909152828216600090815260039091526040902060010154865160a060020a9091048216918791908516908110611e6257611e62613ba8565b6001604060020a0392831660209182029290920181019190915290821660009081526003909152604090208054611e9890613bc1565b80601f0160208091040260200160405190810160405280929190818152602001828054611ec490613bc1565b8015611f115780601f10611ee657610100808354040283529160200191611f11565b820191906000526020600020905b815481529060010190602001808311611ef457829003601f168201915b505050505084836001604060020a031681518110611f3157611f31613ba8565b602002602001018190525060036000826001604060020a03166001604060020a0316815260200190815260200160002060010160009054906101000a9004600160a060020a031683836001604060020a031681518110611f9357611f93613ba8565b600160a060020a039092166020928302919091019091015281611fb581613b5f565b9250505b80611fc381613b5f565b915050611dae565b505090919293565b60008054604060020a90046001604060020a0316816008611ff383613b5f565b82546101009290920a6001604060020a0381810219909316918316021790915581166000908152600260209081526040909120845192935061203992909185019061342f565b506001604060020a0380821660009081526002602081815260408084206001808201805473ffffffffffffffffffffffffffffffffffffffff191633908117909155865293019091528220805460ff19169091179055805460c060020a90049091169060186120a783613b5f565b91906101000a8154816001604060020a0302191690836001604060020a03160217905550505050565b6000546001604060020a03608060020a909104811690821610801561211857506001604060020a038116600090815260036020526040902060010154600160a060020a031615155b6121675760405160e560020a62461bcd02815260206004820152601b60248201527f50726f6a6563742073686f756c64206265207370656369666965640000000000604482015260640161059f565b600080546001604060020a0316818061217f83613b5f565b82546101009290920a6001604060020a038181021990931691831602179091558116600090815260046020908152604090912085519293506121c592909186019061342f565b506001604060020a03818116600090815260046020908152604080832060018082018054600160e060020a031916337bffffffffffffffff00000000000000000000000000000000000000001981169190911760a060020a8b8a16021790915560028301805467ffffffffffffffff1916905585526005909101909252909120805460ff1916821790558054604060020a900490911690600861226783613b5f565b82546101009290920a6001604060020a038181021990931691831602179091558381166000908152600360205260408120600201805490921692506106de83613b5f565b600080546060919081906001604060020a03608060020a90910481169085161080156122fa57506001604060020a038416600090815260036020526040902060010154600160a060020a031615155b61230357600080fd5b6001604060020a038085166000908152600360205260409020600181015481549192600160a060020a0382169260a060020a9092041690839061234590613bc1565b80601f016020809104026020016040519081016040528092919081815260200182805461237190613bc1565b80156123be5780601f10612393576101008083540402835291602001916123be565b820191906000526020600020905b8154815290600101906020018083116123a157829003601f168201915b505050505092509250925092509193909250565b600060015b6000546001604060020a03604060020a909104811690821610156114bd576001604060020a038116600090815260026020526040902060010154600160a060020a03858116911614801561244e57506001604060020a0381166000908152600260205260409020805461244e919061140a90613bc1565b1561245a5790506114c3565b8061246481613b5f565b9150506123d7565b6000546001604060020a039081169083161080156124b057506001604060020a03808316600090815260046020526040902060019081015460a060020a9004909116115b6124b957600080fd5b6001604060020a0382166000908152600460209081526040808320600160a060020a038516845260050190915281205460ff1690036124f757600080fd5b6001604060020a039091166000908152600460209081526040808320600160a060020a0390941683526005909301905220805460ff19169055565b6000546001604060020a03604060020a909104811690841610801561257a57506001604060020a038316600090815260026020526040902060010154600160a060020a031615155b61258357600080fd5b6001604060020a0383166000908152600260208181526040808420600160a060020a0387168552909201905290205460ff1615611c2657600080fd5b6000546001604060020a0390811690831610801561260057506001604060020a0380831660009081526003602052604090206001015460a060020a90041615155b61260957600080fd5b6001604060020a0382166000908152600360208181526040808420600160a060020a0386168552909201905281205460ff16900361264657600080fd5b6001604060020a039091166000908152600360208181526040808420600160a060020a03909516845293909101905220805460ff19169055565b600054606090819081906001604060020a03604060020a90910481169085161080156126cf57506001604060020a038416600090815260026020526040902060010154600160a060020a031615155b6126d857600080fd5b6001604060020a0380851660009081526002602052604090206001015460a060020a900481169081111561270e5761270e6134fe565b604051908082528060200260200182016040528015612737578160200160208202803683370190505b506001604060020a0380861660009081526002602052604090206001015491945060a060020a909104811690811115612772576127726134fe565b6040519080825280602002602001820160405280156127a557816020015b60608152602001906001900390816127905790505b506001604060020a0380861660009081526002602052604090206001015491935060a060020a9091048116908111156127e0576127e06134fe565b604051908082528060200260200182016040528015612809578160200160208202803683370190505b509050600060015b6000546001604060020a03608060020a909104811690821610156129e4576001604060020a0381811660009081526003602052604090206001015481881660a060020a909104909116036129d2578085836001604060020a03168151811061287b5761287b613ba8565b6001604060020a03928316602091820292909201810191909152908216600090815260029091526040902080546128b190613bc1565b80601f01602080910402602001604051908101604052809291908181526020018280546128dd90613bc1565b801561292a5780601f106128ff5761010080835404028352916020019161292a565b820191906000526020600020905b81548152906001019060200180831161290d57829003601f168201915b505050505084836001604060020a03168151811061294a5761294a613ba8565b602002602001018190525060026000826001604060020a03166001604060020a0316815260200190815260200160002060010160009054906101000a9004600160a060020a031683836001604060020a0316815181106129ac576129ac613ba8565b600160a060020a0390921660209283029190910190910152816129ce81613b5f565b9250505b806129dc81613b5f565b915050612811565b50509193909250565b6000546001604060020a03604060020a9091048116908216108015612a3557506001604060020a038116600090815260026020526040902060010154600160a060020a031615155b612a845760405160e560020a62461bcd02815260206004820152601460248201527f556e6b6e6f776e206f7267616e697a6174696f6e000000000000000000000000604482015260640161059f565b6001604060020a0380821660009081526002602052604090206001015460a060020a90041615612ab357600080fd5b6001604060020a038116600090815260026020526040812090612ad682826134b3565b506001018054600160e060020a03191690556000805460c060020a90046001604060020a031690601861094f83613b85565b60008054606091906001604060020a03604060020a9091048116908416108015612b5557506001604060020a038316600090815260026020526040902060010154600160a060020a031615155b612b5e57600080fd5b6001604060020a038316600090815260026020526040902060018101548154600160a060020a03909116908290612b9490613bc1565b80601f0160208091040260200160405190810160405280929190818152602001828054612bc090613bc1565b8015612c0d5780601f10612be257610100808354040283529160200191612c0d565b820191906000526020600020905b815481529060010190602001808311612bf057829003601f168201915b5050505050915091509150915091565b6060806060806060600060109054906101000a90046001604060020a03166001604060020a0316866001604060020a0316108015612c7e57506001604060020a038616600090815260036020526040902060010154600160a060020a031615155b612c8757600080fd5b6001604060020a03808716600090815260036020526040902060020154811690811115612cb657612cb66134fe565b604051908082528060200260200182016040528015612cdf578160200160208202803683370190505b506001604060020a0380881660009081526003602052604090206002015491965090811690811115612d1357612d136134fe565b604051908082528060200260200182016040528015612d4657816020015b6060815260200190600190039081612d315790505b506001604060020a0380881660009081526003602052604090206002015491955090811690811115612d7a57612d7a6134fe565b604051908082528060200260200182016040528015612da3578160200160208202803683370190505b506001604060020a0380881660009081526003602052604090206002015491945090811690811115612dd757612dd76134fe565b604051908082528060200260200182016040528015612e00578160200160208202803683370190505b506001604060020a0380881660009081526003602052604090206002015491935090811690811115612e3457612e346134fe565b604051908082528060200260200182016040528015612e5d578160200160208202803683370190505b509050600060015b6000546001604060020a0390811690821610156130d2576001604060020a03818116600090815260046020526040902060010154818a1660a060020a909104909116036130c0578087836001604060020a031681518110612ec857612ec8613ba8565b6001604060020a0392831660209182029290920181019190915290821660009081526004909152604090208054612efe90613bc1565b80601f0160208091040260200160405190810160405280929190818152602001828054612f2a90613bc1565b8015612f775780601f10612f4c57610100808354040283529160200191612f77565b820191906000526020600020905b815481529060010190602001808311612f5a57829003601f168201915b505050505086836001604060020a031681518110612f9757612f97613ba8565b602002602001018190525060046000826001604060020a03166001604060020a0316815260200190815260200160002060020160009054906101000a90046001604060020a031685836001604060020a031681518110612ff957612ff9613ba8565b6001604060020a039283166020918202929092018101919091528282166000908152600490915260409020600201548551604060020a909104821691869190851690811061304957613049613ba8565b6001604060020a039283166020918202929092018101919091528282166000908152600490915260409020600101548451600160a060020a0390911691859190851690811061309a5761309a613ba8565b600160a060020a0390921660209283029190910190910152816130bc81613b5f565b9250505b806130ca81613b5f565b915050612e65565b505091939590929450565b6000546001604060020a03604060020a909104811690831610801561312557506001604060020a038216600090815260026020526040902060010154600160a060020a031615155b61312e57600080fd5b6001604060020a0382166000908152600260208181526040808420600160a060020a0386168552909201905290205460ff161561316a57600080fd5b6001604060020a039091166000908152600260208181526040808420600160a060020a03909516845293909101905220805460ff19169055565b6000546001604060020a039081169084161080156131e857506001604060020a03808416600090815260046020526040902060019081015460a060020a9004909116115b6131f157600080fd5b6001604060020a0383166000908152600460209081526040808320600160a060020a038616845260050190915281205460ff16900361079257600080fd5b6000546001604060020a0390811690841610801561327057506001604060020a0380841660009081526003602052604090206001015460a060020a90041615155b61327957600080fd5b6001604060020a0383166000908152600360208181526040808420600160a060020a0387168552909201905290205460ff161561182f57600080fd5b6001604060020a038116600090815260046020819052604082200180546060929182916132e190613bc1565b80601f016020809104026020016040519081016040528092919081815260200182805461330d90613bc1565b801561335a5780601f1061332f5761010080835404028352916020019161335a565b820191906000526020600020905b81548152906001019060200180831161333d57829003601f168201915b5050506001604060020a03968716600090815260046020526040902060020154929783881697604060020a9094049093169550919350505050565b600060015b6000546001604060020a03608060020a909104811690821610156114bd576001604060020a038116600090815260036020526040902060010154600160a060020a03858116911614801561341157506001604060020a03811660009081526003602052604090208054613411919061140a90613bc1565b1561341d5790506114c3565b8061342781613b5f565b91505061339a565b82805461343b90613bc1565b90600052602060002090601f01602090048101928261345d57600085556134a3565b82601f1061347657805160ff19168380011785556134a3565b828001600101855582156134a3579182015b828111156134a3578251825591602001919060010190613488565b506134af9291506134e9565b5090565b5080546134bf90613bc1565b6000825580601f106134cf575050565b601f01602090049060005260206000209081019061038291905b5b808211156134af57600081556001016134ea565b60e060020a634e487b7102600052604160045260246000fd5b600082601f83011261352857600080fd5b81356001604060020a0380821115613542576135426134fe565b604051601f8301601f19908116603f0116810190828211818310171561356a5761356a6134fe565b8160405283815286602085880101111561358357600080fd5b836020870160208301376000602085830101528094505050505092915050565b80356001604060020a03811681146135ba57600080fd5b919050565b600080604083850312156135d257600080fd5b82356001604060020a038111156135e857600080fd5b6135f485828601613517565b925050613603602084016135a3565b90509250929050565b8035600160a060020a03811681146135ba57600080fd5b60008060006060848603121561363857600080fd5b613641846135a3565b925061364f6020850161360c565b9150604084013560ff8116811461366557600080fd5b809150509250925092565b60006020828403121561368257600080fd5b61368b826135a3565b9392505050565b600081518084526020808501945080840160005b838110156136cb5781516001604060020a0316875295820195908201906001016136a6565b509495945050505050565b6000815180845260005b818110156136fc576020818501810151868301820152016136e0565b8181111561370e576000602083870101525b50601f01601f19169290920160200192915050565b6000828251808552602080860195508081830284010181860160005b8481101561376d57601f1986840301895261375b8383516136d6565b9884019892509083019060010161373f565b5090979650505050505050565b600081518084526020808501945080840160005b838110156136cb578151600160a060020a03168752958201959082019060010161378e565b60a0815260006137c660a0830188613692565b82810360208401526137d88188613723565b905082810360408401526137ec8187613692565b905082810360608401526138008186613692565b90508281036080840152613814818561377a565b98975050505050505050565b6000806040838503121561383357600080fd5b61383c836135a3565b915060208301356001604060020a0381111561385757600080fd5b61386385828601613517565b9150509250929050565b60c08152600061388060c08301896136d6565b600160a060020a03881660208401526001604060020a03878116604085015286811660608501528516608084015282810360a08401526138c081856136d6565b9998505050505050505050565b600080600080600060a086880312156138e557600080fd5b6138ee866135a3565b94506138fc602087016135a3565b935061390a604087016135a3565b925060608601356001604060020a038082111561392657600080fd5b61393289838a01613517565b9350608088013591508082111561394857600080fd5b5061395588828901613517565b9150509295509295909350565b6000806040838503121561397557600080fd5b61383c8361360c565b6060815260006139916060830186613692565b82810360208401526139a38186613723565b905082810360408401526139b7818561377a565b9695505050505050565b6040815260006139d46040830185613692565b82810360208401526139e68185613723565b95945050505050565b608081526000613a026080830187613692565b8281036020840152613a148187613692565b90508281036040840152613a288186613723565b90508281036060840152613a3c818561377a565b979650505050505050565b600060208284031215613a5957600080fd5b81356001604060020a03811115613a6f57600080fd5b613a7b84828501613517565b949350505050565b606081526000613a9660608301866136d6565b9050600160a060020a03841660208301526001604060020a0383166040830152949350505050565b60008060408385031215613ad157600080fd5b613ada836135a3565b91506136036020840161360c565b604081526000613afb60408301856136d6565b9050600160a060020a03831660208301529392505050565b606081526000613b2660608301866136d6565b6001604060020a0394851660208401529290931660409091015292915050565b60e060020a634e487b7102600052601160045260246000fd5b60006001604060020a03808316818103613b7b57613b7b613b46565b6001019392505050565b60006001604060020a03821680613b9e57613b9e613b46565b6000190192915050565b60e060020a634e487b7102600052603260045260246000fd5b600281046001821680613bd557607f821691505b602082108103613bf85760e060020a634e487b7102600052602260045260246000fd5b50919050565b60006001604060020a03808316818516808303821115613c2057613c20613b46565b01949350505050565b600060018201613c3b57613c3b613b46565b506001019056fea26469706673582212202d4c8b58de3333024e1035c7a2159e328c922074c22402a05b1d9952078f30dc64736f6c634300080e0033",
  "immutableReferences": {},
  "source": "// SPDX-License-Identifier: MIT\r\npragma solidity >=0.8.0 <0.9.0;\r\n\r\ncontract Sourc3 {\r\n    uint64 lastRepoId_ = 1;\r\n    uint64 lastOrganizationId_ = 1;\r\n    uint64 lastProjectId_ = 1;\r\n\r\n    struct Organization {\r\n        string name_;\r\n        address creator_;\r\n        uint64 projectsNumber_;\r\n\r\n        mapping (address => uint8) memberInfo_;\r\n    }\r\n\r\n    struct Project {\r\n        string name_;\r\n        address creator_;\r\n        uint64 organizationId_;\r\n        uint64 reposNumber_;\r\n\r\n        mapping (address => uint8) memberInfo_;\r\n    }\r\n\r\n    struct Repo {\r\n        string name_;\r\n        address creator_;\r\n        uint64 projectId_;\r\n        uint64 curObjsNumber_;\r\n        uint64 curMetasNumber_;\r\n        bytes32 nameHash_;\r\n        string state_;\r\n\r\n        mapping (address => uint8) memberInfo_;\r\n    }\r\n\r\n    uint64 organizationsNumber_ = 0;\r\n    uint64 projectsNumber_ = 0;\r\n    uint64 reposNumber_ = 0;\r\n    \r\n    mapping (uint64 => Organization) organizations_;\r\n    mapping (uint64 => Project) projects_;\r\n    mapping (uint64 => Repo) repos_;\r\n\r\n    function createOrganization(string memory name) public {\r\n        // TODO maybe check organization name\r\n        uint64 id = lastOrganizationId_++;\r\n        organizations_[id].name_ = name; \r\n        organizations_[id].creator_ = msg.sender;\r\n        // TODO check this\r\n        organizations_[id].memberInfo_[msg.sender] = 1; // all permissions\r\n\r\n        organizationsNumber_++;\r\n    }\r\n\r\n    function modifyOrganization(uint64 organizationId, string memory name) public {\r\n        require(organizationId < lastOrganizationId_ && organizations_[organizationId].creator_ != address(0), \"Unknown organization\");\r\n        // TODO check permissions\r\n        organizations_[organizationId].name_ = name;\r\n    }\r\n\r\n    function removeOrganization(uint64 organizationId) public {\r\n        require(organizationId < lastOrganizationId_ && organizations_[organizationId].creator_ != address(0), \"Unknown organization\");\r\n        // TODO check permissions\r\n        require(organizations_[organizationId].projectsNumber_ == 0);\r\n        delete organizations_[organizationId];\r\n        organizationsNumber_--;\r\n    }\r\n\r\n    function createProject(string memory name, uint64 organizationId) public {\r\n        require(organizationId < lastOrganizationId_ && organizations_[organizationId].creator_ != address(0), \"Organization should be specified\");\r\n        uint64 id = lastProjectId_++;\r\n        projects_[id].name_ = name;\r\n        projects_[id].creator_ = msg.sender;\r\n        projects_[id].organizationId_ = organizationId;\r\n        // TODO check this\r\n        projects_[id].memberInfo_[msg.sender] = 1; // all permissions\r\n\r\n        projectsNumber_++;\r\n        organizations_[organizationId].projectsNumber_++;\r\n    }\r\n\r\n    function modifyProject(uint64 projectId, string memory name) public {\r\n        require(projectId < lastProjectId_ && projects_[projectId].creator_ != address(0), \"Unknown project\");\r\n        // TODO check permissions\r\n        projects_[projectId].name_ = name;\r\n    }\r\n\r\n    function removeProject(uint64 projectId) public {\r\n        require(projectId < lastProjectId_ && projects_[projectId].creator_ != address(0), \"Unknown project\");\r\n        // TODO check permissions\r\n        require(projects_[projectId].reposNumber_ == 0);\r\n        // TODO check order of commands\r\n        organizations_[projects_[projectId].organizationId_].projectsNumber_--;\r\n        delete projects_[projectId];\r\n        projectsNumber_--;\r\n    }\r\n\r\n    function createRepo(string memory name, uint64 projectId) public {\r\n        require(projectId < lastProjectId_ && projects_[projectId].creator_ != address(0), \"Project should be specified\");\r\n        uint64 id = lastRepoId_++;\r\n        repos_[id].name_ = name;\r\n        repos_[id].creator_ = msg.sender;\r\n        repos_[id].projectId_ = projectId;\r\n        repos_[id].curObjsNumber_ = 0;\r\n        // TODO check this\r\n        repos_[id].memberInfo_[msg.sender] = 1; // all permissions\r\n\r\n        reposNumber_++;\r\n        projects_[projectId].reposNumber_++;\r\n    }\r\n\r\n    function modifyRepo(uint64 repoId, string memory name) public {\r\n        require(repoId < lastRepoId_ && repos_[repoId].creator_ != address(0), \"Unknown repository\");\r\n        // TODO check permissions\r\n        repos_[repoId].name_ = name;\r\n    }\r\n\r\n    function removeRepo(uint64 repoId) public {\r\n        require(repoId < lastRepoId_ && repos_[repoId].creator_ != address(0), \"Unknown repository\");\r\n        // TODO check permissions\r\n        // TODO check order of commands\r\n        projects_[repos_[repoId].projectId_].reposNumber_--;\r\n        delete repos_[repoId];\r\n        reposNumber_--;\r\n    }\r\n\r\n    //\r\n\r\n    function pushState(uint64 repoId, uint64 objsCount, uint64 metasCount, string memory expectedState, string memory state) public {\r\n        // require(repoId < lastRepoId_ && repos_[repoId].projectId_ > 1);\r\n        // TODO check permissions\r\n        // require(isStringEqual(expectedState, repos_[repoId].state_));\r\n        repos_[repoId].curObjsNumber_ += objsCount;\r\n        repos_[repoId].curMetasNumber_ += metasCount;\r\n        repos_[repoId].state_ = state;\r\n    }\r\n\r\n    function loadState(uint64 repoId) view public returns (string memory state, uint64 curObjects, uint64 curMetas) {\r\n        // require(repoId < lastRepoId_ && repos_[repoId].projectId_ > 1);\r\n        state = repos_[repoId].state_;\r\n        curObjects = repos_[repoId].curObjsNumber_;\r\n        curMetas = repos_[repoId].curMetasNumber_;\r\n    }\r\n\r\n    // Repo member\r\n\r\n    function addRepoMember(uint64 repoId, address member, uint8 permissions) public {\r\n        require(repoId < lastRepoId_ && repos_[repoId].projectId_ > 1);\r\n        // TODO check permissions\r\n        require(repos_[repoId].memberInfo_[member] == 0);\r\n        repos_[repoId].memberInfo_[member] = permissions;\r\n    }\r\n\r\n    function modifyRepoMember(uint64 repoId, address member, uint8 permissions) public {\r\n        require(repoId < lastRepoId_ && repos_[repoId].projectId_ > 1);\r\n        // TODO check permissions\r\n        require(repos_[repoId].memberInfo_[member] != 0);\r\n        repos_[repoId].memberInfo_[member] = permissions;\r\n    }\r\n\r\n    function removeRepoMeber(uint64 repoId, address member) public {\r\n        require(repoId < lastRepoId_ && repos_[repoId].projectId_ > 1);\r\n        // TODO check permissions\r\n        require(repos_[repoId].memberInfo_[member] != 0);\r\n        delete repos_[repoId].memberInfo_[member];\r\n    }\r\n\r\n    // project member\r\n\r\n    function addProjectMember(uint64 projectId, address member, uint8 permissions) public {\r\n        require(projectId < lastRepoId_ && projects_[projectId].organizationId_ > 0);\r\n        // TODO check permissions\r\n        require(projects_[projectId].memberInfo_[member] == 0);\r\n        projects_[projectId].memberInfo_[member] = permissions;\r\n    }\r\n\r\n    function modifyProjectMember(uint64 projectId, address member, uint8 permissions) public {\r\n        require(projectId < lastRepoId_ && projects_[projectId].organizationId_ > 0);\r\n        // TODO check permissions\r\n        require(projects_[projectId].memberInfo_[member] != 0);\r\n        projects_[projectId].memberInfo_[member] = permissions;\r\n    }\r\n\r\n    function removeProjectMember(uint64 projectId, address member) public {\r\n        require(projectId < lastRepoId_ && projects_[projectId].organizationId_ > 0);\r\n        // TODO check permissions\r\n        require(projects_[projectId].memberInfo_[member] != 0);\r\n        delete projects_[projectId].memberInfo_[member];\r\n    }\r\n\r\n    // organization member\r\n    function addOrganizationMember(uint64 organizationId, address member, uint8 permissions) public {\r\n        require(organizationId < lastOrganizationId_ && organizations_[organizationId].creator_ != address(0));\r\n        // TODO check permissions\r\n        require( organizations_[organizationId].memberInfo_[member] == 0);\r\n        organizations_[organizationId].memberInfo_[member] = permissions;\r\n    }\r\n\r\n    function modifyOrganizationMember(uint64 organizationId, address member, uint8 permissions) public {\r\n        require(organizationId < lastOrganizationId_ && organizations_[organizationId].creator_ != address(0));\r\n        // TODO check permissions\r\n        require( organizations_[organizationId].memberInfo_[member] != 0);\r\n        organizations_[organizationId].memberInfo_[member] = permissions;\r\n    }\r\n\r\n    function removeOrganizationMember(uint64 organizationId, address member) public {\r\n        require(organizationId < lastOrganizationId_ && organizations_[organizationId].creator_ != address(0));\r\n        // TODO check permissions\r\n        require( organizations_[organizationId].memberInfo_[member] == 0);\r\n        delete organizations_[organizationId].memberInfo_[member];\r\n    }\r\n\r\n    /////////////////////////////////////////////////////////////////\r\n    function getMyRepos() public view returns (uint64[] memory ids, string[] memory names) {\r\n        uint64 count = 0;\r\n        for (uint64 i = 1; i < lastRepoId_; i++) {\r\n            if (repos_[i].creator_ == msg.sender) {\r\n                count++;\r\n            }\r\n        }\r\n\r\n        ids = new uint64[](count);\r\n        names = new string[](count);\r\n        uint j = 0;\r\n        for (uint64 i = 1; i < lastRepoId_; i++) {\r\n            if (repos_[i].creator_ == msg.sender) {\r\n                ids[j] = i;\r\n                names[j] = repos_[i].name_;\r\n                ++j;\r\n            }\r\n        }\r\n    }\r\n\r\n    function getReposList() public view returns (uint64[] memory ids, string[] memory names, uint64[] memory projectIds, uint64[] memory curObjcts, address[] memory creators) {\r\n        ids = new uint64[](reposNumber_);\r\n        names = new string[](reposNumber_);\r\n        projectIds = new uint64[](reposNumber_);\r\n        curObjcts = new uint64[](reposNumber_);\r\n        creators = new address[](reposNumber_);\r\n\r\n        uint64 j = 0;\r\n        for (uint64 i = 1; i < lastRepoId_; i++) {\r\n            if (repos_[i].creator_ != address(0)) {\r\n                ids[j] = i;\r\n                names[j] = repos_[i].name_;\r\n                projectIds[j] = repos_[i].projectId_;\r\n                curObjcts[j] = repos_[i].curObjsNumber_;\r\n                creators[j] = repos_[i].creator_;\r\n                j++;\r\n            }\r\n        }\r\n    }\r\n\r\n    function getRepo(uint64 id) public view returns (string memory, address, uint64, uint64, uint64, string memory) {\r\n        require(id < lastRepoId_ && repos_[id].creator_ != address(0));\r\n\r\n        return (repos_[id].name_, repos_[id].creator_, repos_[id].projectId_, repos_[id].curObjsNumber_, repos_[id].curMetasNumber_, repos_[id].state_);\r\n    }\r\n\r\n    function getProject(uint64 id) public view returns (string memory, address, uint64) {\r\n        require(id < lastProjectId_ && projects_[id].creator_ != address(0));\r\n\r\n        return (projects_[id].name_, projects_[id].creator_, projects_[id].organizationId_);\r\n    }\r\n\r\n    function getOrganization(uint64 id) public view returns (string memory, address) {\r\n        require(id < lastOrganizationId_ && organizations_[id].creator_ != address(0));\r\n\r\n        return (organizations_[id].name_, organizations_[id].creator_);\r\n    }\r\n\r\n    function getRepoId(address owner, string memory name) public view returns (uint64) {\r\n        for (uint64 id = 1; id < lastRepoId_; id++) {\r\n            if (repos_[id].creator_ == owner && isStringEqual(repos_[id].name_, name)) {\r\n                return id;\r\n            }\r\n        }\r\n        return 0;\r\n    }\r\n\r\n    function getProjectId(address owner, string memory name) public view returns (uint64) {\r\n        for (uint64 id = 1; id < lastProjectId_; id++) {\r\n            if (projects_[id].creator_ == owner && isStringEqual(projects_[id].name_, name)) {\r\n                return id;\r\n            }\r\n        }\r\n        return 0;\r\n    }\r\n\r\n    function getOrganizationId(address owner, string memory name) public view returns (uint64) {\r\n        for (uint64 id = 1; id < lastOrganizationId_; id++) {\r\n            if (organizations_[id].creator_ == owner && isStringEqual(organizations_[id].name_, name)) {\r\n                return id;\r\n            }\r\n        }\r\n        return 0;\r\n    }\r\n\r\n    function getProjectsList() public view returns (uint64[] memory ids, uint64[] memory orgIds, string[] memory names, address[] memory creators) {\r\n        ids = new uint64[](projectsNumber_);\r\n        orgIds = new uint64[](projectsNumber_);\r\n        names = new string[](projectsNumber_);\r\n        creators = new address[](projectsNumber_);\r\n\r\n        uint64 j = 0;\r\n        for (uint64 i = 1; i < lastProjectId_; i++) {\r\n            if (projects_[i].creator_ != address(0)) {\r\n                ids[j] = i;\r\n                orgIds[j] = projects_[i].organizationId_;\r\n                names[j] = projects_[i].name_;\r\n                creators[j] = projects_[i].creator_;\r\n                j++;\r\n            }\r\n        }\r\n    }\r\n\r\n    function getReposListOfProject(uint64 projectId) public view returns (uint64[] memory ids, string[] memory names, uint64[] memory curObjsNumbers, uint64[] memory curMetasNumbers, address[] memory creators) {\r\n        require(projectId < lastProjectId_ && projects_[projectId].creator_ != address(0));\r\n        ids = new uint64[](projects_[projectId].reposNumber_);\r\n        names = new string[](projects_[projectId].reposNumber_);\r\n        curObjsNumbers = new uint64[](projects_[projectId].reposNumber_);\r\n        curMetasNumbers = new uint64[](projects_[projectId].reposNumber_);\r\n        creators = new address[](projects_[projectId].reposNumber_);\r\n\r\n        uint64 j = 0;\r\n        for (uint64 i = 1; i < lastRepoId_; i++) {\r\n            if (repos_[i].projectId_ == projectId) {\r\n                ids[j] = i;\r\n                names[j] = repos_[i].name_;\r\n                curObjsNumbers[j] = repos_[i].curObjsNumber_;\r\n                curMetasNumbers[j] = repos_[i].curMetasNumber_;\r\n                creators[j] = repos_[i].creator_;\r\n                j++;\r\n            }\r\n        }\r\n    }\r\n\r\n    function getMembersListOfProject(uint64 projectId) public view {} // address, permissions\r\n\r\n    function getOrganizationsList() public view returns (uint64[] memory ids, string[] memory names, address[] memory creators) {\r\n        ids = new uint64[](organizationsNumber_);\r\n        names = new string[](organizationsNumber_);\r\n        creators = new address[](organizationsNumber_);\r\n        uint64 j = 0;\r\n        for (uint64 i = 1; i < lastOrganizationId_; i++) {\r\n            if (organizations_[i].creator_ != address(0)) {\r\n                ids[j] = i;\r\n                names[j] = organizations_[i].name_;\r\n                creators[j] = organizations_[i].creator_;\r\n                j++;\r\n            }\r\n        }\r\n    }\r\n\r\n    function getProjectsListOfOrganization(uint64 organizationId) public view returns (uint64[] memory ids, string[] memory names, address[] memory creators) {\r\n        require(organizationId < lastOrganizationId_ && organizations_[organizationId].creator_ != address(0));\r\n        ids = new uint64[](organizations_[organizationId].projectsNumber_);\r\n        names = new string[](organizations_[organizationId].projectsNumber_);\r\n        creators = new address[](organizations_[organizationId].projectsNumber_);\r\n\r\n        uint64 j = 0;\r\n        for (uint64 i = 1; i < lastProjectId_; i++) {\r\n            if (projects_[i].organizationId_ == organizationId) {\r\n                ids[j] = i;\r\n                names[j] = organizations_[i].name_;\r\n                creators[j] = organizations_[i].creator_;\r\n                j++;\r\n            }\r\n        }\r\n    }\r\n\r\n    function getMembersListOfOrganization(uint64 organizationId) public view {} // address, permissions\r\n\r\n    function isStringEqual(string memory first,string memory second) private pure returns (bool) {\r\n        return (keccak256(bytes(first)) == keccak256(bytes(second)));\r\n    }\r\n}\r\n",
  "sourcePath": "D:\\work\\sourc3\\sourc3-evm\\contracts\\Sourc3.sol",
  "compiler": {
    "name": "solc",
    "version": "0.8.14+commit.80d49f37.Emscripten.clang"
  },
  "schemaVersion": "3.4.8",
  "updatedAt": "2022-07-21T09:40:13.679Z",
  "networkType": "ethereum",
  "devdoc": {
    "kind": "dev",
    "methods": {},
    "version": 1
  },
  "userdoc": {
    "kind": "user",
    "methods": {},
    "version": 1
  }
}